:0600000080314B2C0000D2
:0800080083018031200077081C
:10001000A0007808A1007908A2007A08A300850151
:1000200091308400801E1628911A1F282008F7009E
:100030002108F8002208F9002308FA00090080319D
:100040002128911E212823001D082000BE00230026
:100050001908F8002000BE1C312823001D121D16AF
:10006000200078082100AC00200091128031162871
:1000700021000F1222000F1621008F1222008F166E
:1000800021000F1322000F1321008F1120008F1168
:10009000080021000F1122000F1521008F102200EF
:1000A0008F1021008E1020008E10080021000F12EA
:1000B00022000F1621008F1222008F1221000F1331
:1000C00022000F1721008F1120008F15080021003A
:1000D0000F1122000F1121008F1022008F14210018
:1000E0008E1020008E1408008F1D7B288E187B2810
:1000F0001030EB008A288F1D82288E1C8228113038
:10010000EB008A288F1989288E1C89280130EB0082
:100110008A28EB01080021003E08103C03199528AD
:10012000C000BC0DBD0DC00B91280E168E128E1195
:1001300022008E1521000E1122000E1121003E0812
:10014000C000BD1BA62822008E122100BD1FAB28B7
:1001500022008E162100BC0DBD0D22008E114430F0
:100160002100C100C10BB228F80DF90D20000E1EB0
:1001700078100E1A781422008E1543302100C10029
:10018000C10BC028C00BA12822000E1520000800BA
:100190000E1121003608BD003508BC001030BE002D
:1001A00020008B202100BD010130BC001030BE00BA
:1001B00020008B2079082100B8007808B700B9002A
:1001C00038080F39BA0020000E151A30F700F70B67
:1001D000E728000021003908F8003A08F90020005B
:1001E00008008F302100B6003030B5002000C82054
:1001F0007908AB007808AA002B082100B600B701E7
:1002000036082000C0002A08C10097302100B6003F
:100210003030B5002000C8207908AF007808AE0063
:100220002F082100B600B70136082000C2002E08B2
:10023000C3008B302100B6003030B5002000C8204C
:100240007908A9007808A80029082100B600B7019C
:1002500036082000C4002808C50093302100B600ED
:100260003030B5002000C8207908AD007808AC0017
:100270002D082100B600B70136082000C6002C0862
:10028000C70087302100B6003030B5002000C820FC
:100290007908A7007808A60027082100B600B70152
:1002A00036082000C8002608C9009F302100B6008B
:1002B0003030B5002000C8207908B3007808B200BB
:1002C00033082100B600B70136082000CA00320802
:1002D000CB008031F12C0E1121003708BD0036080B
:1002E000BC001030BE0020008B202100BD01013079
:1002F000BC001030BE0020008B2079082100B9001E
:100300007808B800BA0039080F39BB0020000E1574
:100310001A30F700F70B8A29000021003A08F8008C
:100320003B08F90020000800AF302100B700303052
:10033000B60020006B217908B9007808B8003908A8
:100340002100B600B70136082000CC003808CD00E7
:10035000A7302100B7003030B60020006B217908AB
:10036000B5007808B40035082100B600B70136089A
:100370002000CE003408CF00AB302100B700303071
:10038000B60020006B217908B7007808B60037085E
:100390002100B600B70136082000D0003608D10091
:1003A000B3302100B7003030B60020006B2179084F
:1003B000BB007808BA003B082100B600B701360838
:1003C0002000D2003A08D300B7302100B700303007
:1003D000B60020006B217908BD007808BC003D08FC
:1003E0002100B600B70136082000D4003C08D50033
:1003F0008031F22C2100B601B701B801B901BA0170
:10040000BB01BC01BD01BE01BF01C001C101C201F0
:10041000C301C401C501C601C701C801C901CA01A0
:10042000CB01CC01CD01CE01CF01D001D101D20150
:10043000D301D401D501D601D701D801D901DA0100
:10044000DB01DC01DD01DE01DF01E001E101E201B0
:10045000E301E401E501E601E701E801E901EA0160
:10046000EB01EC01ED01EE01EF012200A001A10181
:10047000A201A301A401A501A601A701A801A90148
:10048000AA01AB01AC01AD01AE01AF01B001B101F8
:10049000B201B301B401B501B601B701B801B901A8
:1004A000BA01BB01BC01BD01BE01BF01C001C10158
:1004B000C201C301C401C501C601C701C801C90108
:1004C000CA01CB01CC01CD01CE01CF01D001D101B8
:1004D000D201D301D401D501D601D701D801D90168
:1004E000DA01DB01DC01DD01DE01DF01E001E10118
:1004F000E201E301E401E501E601E701E801E901C8
:10050000EA01EB01EC01ED01EE01EF012300A00196
:10051000A101A201A301A401A501A601A701A801AF
:10052000A901AA01AB01AC01AD01AE01AF01B0015F
:10053000B101B201B301B401B501B601B701B8010F
:10054000B901BA01BB01BC01BD01BE01BF01C001BF
:10055000C101C201C301C401C501C601C701C8016F
:10056000C901CA01CB01CC01CD01CE01CF01D0011F
:10057000D101D201D301D401D501D601D701D801CF
:10058000D901DA01DB01DC01DD01DF01DE0121003F
:10059000350DF700F70DFC30F7051D08833977049A
:1005A0009D000F30F8001F08F03978049F001A30C2
:1005B000F700F70BD92A00002300E0016008633C34
:1005C000031CF92A0310600D663E8400203085006C
:1005D0000318850A21009D149D18EC2A1B08800031
:1005E0001C08813F0D30F700F70BF42A2300E00AC6
:1005F000DE2A22004A0848072300E20022004B08B6
:10060000493D2300E30022004C082300E2072200BA
:100610004D082300E33D6308E5006208E400E701BC
:100620000330E600F801F901F701FA016708031D3C
:100630001C2B66080319362B1030E8000310E40D5C
:10064000E50DF70DFA0D67087A02031D292B6608E0
:100650007702031C322B6608F702031CFA036708B3
:10066000FA020314F80DF90DE80B1E2B7908DF00D0
:100670007808DE005E08F8005F08F9002000080036
:100680002100350DF700F70DFC30F7051D08833903
:1006900077049D000F30F8001F08F03978049F00A0
:1006A0001A30F700F70B522B00009D149D18562BA3
:1006B0001B08B6001C08B700370CFA00360CF9000E
:1006C000FA0CF90CFA0CF90CFA0CF90C7908B800D0
:1006D0003808F8002000080004302100B500200090
:1006E000FA2179082100AB007808AA00B7012B088D
:1006F0002000D60021002A082000D7000330210066
:10070000B5002000FA2179082100A9007808A80086
:10071000B70129082000D800210028082000D900AE
:1007200002302100B5002000FA2179082100A7003D
:100730007808A600B70127082000DA002100260863
:100740002000DB0001302100B5002000FA217908EB
:100750002100A5007808A400B70125082000DC00CE
:10076000210024082000DD0005302100B500200014
:10077000FA2179082100A3007808A200B701230814
:100780002000DE00210022082000DF0006302100CA
:10079000B5002000FA2179082100A1007808A00006
:1007A000B70121082000E000210020082000E1001E
:1007B00008302100B500200040237808E20009300D
:1007C0002100B500200040237808E3000B30210011
:1007D000B5002000FA217908ED007808EC006D08DA
:1007E0002100B600B70136082000E4006C08E500DF
:1007F0000A302100B500200040237808E6000C30C4
:100800002100B5002000FA217908EF007808EE00F9
:100810006F082100B600B70136082000E7006E0817
:10082000E8000D302100B500200040237808E900E1
:10083000EA018031F32C2030850065308400000807
:100840000319302C0530F800F701F70B252CF80BB5
:10085000242C2E30F700F70B2B2C2E2C800B222C67
:100860000800111E312C23009A00803120000D2D2C
:100870002100B50135082C3C031C482C1F303507DE
:100880008400203085000318850A8001B50A3A2CBF
:1008900080312000172D7A30210099002000A4011A
:1008A000A501BE0123009F15A0309B0001309C00D4
:1008B000A6309E0090309D0021000E168E128E11E3
:1008C00022008E1521000E1122000E112000ED01D4
:1008D000EC01EF01EE012100A101A001A301A201A1
:1008E000A501A401A701A601A901A801AB01AA01C4
:1008F000F00123008C018D018E018F0190012200F7
:10090000920191018C2C2D3440343F340034083452
:100910004034AC340034003404308500833084002B
:1009200085171200F700003A0319A62C1200F800F0
:10093000F81B9E2C0F39870012008600781B1200CE
:10094000781F12001E00F70BA02C912C0130F00034
:1009500033302000BF0021008F1322008F172100A9
:100960000F1022000F10053023009100951315146D
:1009700013082000A5000A302300910095131514D8
:1009800013082000A4002508083C0319CE2C2408D5
:10099000053C0319CE2C38204920D02C5620672046
:1009A00021001E169E161E139E171D141E109E104B
:1009B0001E112F3023008C00073090003F308D0037
:1009C00002308F0021009116C0308B04200074206B
:1009D00021002C08613C031D182D33302000BF007E
:1009E000F12894296C2B2100AC010530B5002000C2
:1009F0001B240F1074202100B40134082C3C031C6C
:100A0000152D1F3034078400203085000318850A17
:100A10000008B50035082000312C01302100B50058
:100A200020001B242100B40AFD2C2000382C2100BA
:100A30002C08173C031D522DAC010A30B5002000D4
:100A40001B24562067200B08F7008B13053023006A
:100A50009100083093009513151555309600AA3073
:100A6000960095149518322D151177088B040830CF
:100A70002000A5000B08F7008B130A30230091001B
:100A8000053093009513151555309600AA30960041
:100A900095149518492D151177088B040530200001
:100AA000A40021002C08183C031D8C2DAC010A3039
:100AB000B50020001B24382049200B08F7008B13B9
:100AC0000530230091000130930095131515553022
:100AD0009600AA309600951495186C2D151177087C
:100AE0008B0401302000A5000B08F7008B130A309F
:100AF0002300910001309300951315155530960091
:100B0000AA30960095149518832D151177088B043B
:100B100001302000A40021002C08023C031D9A2D66
:100B2000AC010A30B50020001B240F10E401013095
:080B3000F0002100E62C630037
:020000040001F9
:04000E00C43F231EAA
:00000001FF
;PIC16F1789
;CRC=697D  CREATED="27-Jan-22 22:59"
